:020000040800F2
:1000000040560020B1540008516601089D54000874
:100010009D5400089D5400089D54000800000000F5
:10002000000000000000000000000000E55400088F
:100030009D54000800000000DD560008C1040108BE
:100040004957000849570008495700084957000810
:100050004957000849570008495700084957000800
:1000600049570008495700084957000849570008F0
:1000700049570008495700084957000849570008E0
:1000800049570008495700084957000849570008D0
:1000900049570008495700084957000849570008C0
:1000A00049570008495700084957000849570008B0
:1000B00049570008495700084957000849570008A0
:1000C0004957000849570008495700084957000890
:1000D0004957000849570008495700084957000880
:1000E0004957000849570008495700084957000870
:1000F0004957000849570008495700084957000860
:10010000495700084957000849570008495700084F
:10011000495700084957000849570008495700083F
:10012000495700084957000849570008495700082F
:10013000495700084957000849570008495700081F
:10014000495700084957000849570008495700080F
:1001500049570008495700084957000849570008FF
:1001600049570008495700084957000849570008EF
:1001700049570008495700084957000849570008DF
:08018000495700084957000827
:1001C00090F800F06DE9024520F007016FF0000C97
:1001D00010F0070491F820F040F049804FF000043F
:1001E0006FF00700D1E9002391F840F000F108001A
:1001F00082FA4CF2A4FA8CF283FA4CF3A2FA8CF352
:100200004BBBD1E9022382FA4CF200F10800A4FAB8
:100210008CF283FA4CF3A2FA8CF3E3B9D1E904230C
:1002200082FA4CF200F10800A4FA8CF283FA4CF343
:10023000A2FA8CF37BB9D1E9062301F1200182FAFD
:100240004CF200F10800A4FA8CF283FA4CF3A2FA03
:100250008CF3002BC6D0002A04BF04301A4612BA11
:10026000B2FA82F2FDE8024500EBD2007047D1E914
:10027000002304F00305C4F100004FEAC50514F0A3
:10028000040F91F840F00CFA05F562EA05021CBF74
:1002900063EA050362464FF00004A9E7844641EA99
:1002A000000313F003036DD1403A41D351F8043BEE
:1002B00040F8043B51F8043B40F8043B51F8043B40
:1002C00040F8043B51F8043B40F8043B51F8043B30
:1002D00040F8043B51F8043B40F8043B51F8043B20
:1002E00040F8043B51F8043B40F8043B51F8043B10
:1002F00040F8043B51F8043B40F8043B51F8043B00
:1003000040F8043B51F8043B40F8043B51F8043BEF
:1003100040F8043B51F8043B40F8043B51F8043BDF
:1003200040F8043B51F8043B40F8043B403ABDD24E
:10033000303211D351F8043B40F8043B51F8043BF0
:1003400040F8043B51F8043B40F8043B51F8043BAF
:1003500040F8043B103AEDD20C3205D351F8043B7F
:1003600040F8043B043AF9D2043208D0D2071CBF4B
:1003700011F8013B00F8013B01D30B880380604674
:10038000704700BF082A13D38B078DD010F00303EA
:100390008AD0C3F10403D21ADB071CBF11F8013B5A
:1003A00000F8013B80D331F8023B20F8023B7BE7A9
:1003B000043AD9D3013A11F8013B00F8013BF9D2D4
:1003C0000B7803704B7843708B788370604670476E
:1003D00081F0004102E000BF83F0004330B54FEAF6
:1003E00041044FEA430594EA050F08BF90EA020F63
:1003F0001FBF54EA000C55EA020C7FEA645C7FEAF6
:10040000655C00F0E2804FEA5454D4EB5555B8BF18
:100410006D420CDD2C4480EA020281EA030382EA89
:10042000000083EA010180EA020281EA0303362D1B
:1004300088BF30BD11F0004F4FEA01314FF4801CEE
:100440004CEA113102D0404261EB410113F0004F00
:100450004FEA03334CEA133302D0524263EB4303B7
:1004600094EA050F00F0A780A4F10104D5F1200E55
:100470000DDB02FA0EFC22FA05F2801841F10001B0
:1004800003FA0EF2801843FA05F359410EE0A5F184
:1004900020050EF1200E012A03FA0EFC28BF4CF0B5
:1004A000020C43FA05F3C01851EBE37101F000456B
:1004B00007D54FF0000EDCF1000C7EEB00006EEB78
:1004C0000101B1F5801F1BD3B1F5001F0CD3490802
:1004D0005FEA30004FEA3C0C04F101044FEA445259
:1004E00012F5800F80F09A80BCF1004F08BF5FEAE0
:1004F000500C50F1000041EB045141EA050130BDC0
:100500005FEA4C0C404141EB0101013C28BFB1F5D1
:10051000801FE9D291F0000F04BF01460020B1FA1C
:1005200081F308BF2033A3F10B03B3F120020CDAEF
:100530000C3208DD02F1140CC2F10C0201FA0CF0CD
:1005400021FA02F10CE002F11402D8BFC2F1200C32
:1005500001FA02F120FA0CFCDCBF41EA0C019040E8
:10056000E41AA2BF01EB0451294330BD6FEA040431
:100570001F3C1CDA0C340EDC04F11404C4F120021C
:1005800020FA04F001FA02F340EA030021FA04F32E
:1005900045EA030130BDC4F10C04C4F1200220FA85
:1005A00002F001FA04F340EA0300294630BD21FAC3
:1005B00004F0294630BD94F0000F83F4801306BF89
:1005C00081F480110134013D4EE77FEA645C18BF7D
:1005D0007FEA655C29D094EA050F08BF90EA020F14
:1005E00005D054EA000C04BF1946104630BD91EA0C
:1005F000030F1EBF0021002030BD5FEA545C05D10F
:100600004000494128BF41F0004130BD14F580044D
:100610003CBF01F5801130BD01F0004545F0FE41C1
:1006200041F470014FF0000030BD7FEA645C1ABFF6
:10063000194610467FEA655C1CBF0B46024650EA2D
:10064000013406BF52EA033591EA030F41F4002159
:1006500030BD00BF90F0000F04BF0021704730B5DF
:100660004FF4806404F132044FF000054FF00001B4
:1006700050E700BF90F0000F04BF0021704730B575
:100680004FF4806404F1320410F0004548BF40424A
:100690004FF000013EE700BF42004FEAE2014FEA9F
:1006A00031014FEA02701FBF12F07F4393F07F4F7A
:1006B00081F06051704732F07F4208BF704793F07D
:1006C0007F4F04BF41F40021704730B54FF4607490
:1006D00001F0004521F000411CE700BF50EA010293
:1006E00008BF704730B54FF000050AE050EA01023C
:1006F00008BF704730B511F0004502D5404261EBAC
:1007000041014FF4806404F132045FEA915C3FF4EC
:10071000D8AE4FF003025FEADC0C18BF03325FEA89
:10072000DC0C18BF033202EBDC02C2F1200300FA3A
:1007300003FC20FA02F001FA03FE40EA0E0021FA5F
:1007400002F11444BDE600BF70B54FF0FF0C4CF44D
:10075000E06C1CEA11541DBF1CEA135594EA0C0FFF
:1007600095EA0C0F00F0DEF82C4481EA030621EA3A
:100770004C5123EA4C5350EA013518BF52EA033575
:1007800041F4801143F4801338D0A0FB02CE4FF027
:100790000005E1FB02E506F00042E0FB03E54FF057
:1007A0000006E1FB03569CF0000F18BF4EF0010E4F
:1007B000A4F1FF04B6F5007F64F5407404D25FEA4B
:1007C0004E0E6D4146EB060642EAC62141EA5551FE
:1007D0004FEAC52040EA5E504FEACE2EB4F1FD0C40
:1007E00088BFBCF5E06F1ED8BEF1004F08BF5FEABE
:1007F000500E50F1000041EB045170BD06F0004670
:1008000046EA010140EA020081EA0301B4EB5C041C
:10081000C2BFD4EB0C0541EA045170BD41F4801114
:100820004FF0000E013C00F3AB8014F1360FDEBF39
:10083000002001F0004170BDC4F10004203C35DA15
:100840000C341BDC04F11404C4F1200500FA05F398
:1008500020FA04F001FA05F240EA020001F0004239
:1008600021F0004110EBD37021FA04F642EB0601AF
:100870005EEA430E08BF20EAD37070BDC4F10C04D9
:10088000C4F1200500FA04F320FA05F001FA04F29D
:1008900040EA020001F0004110EBD37041F1000189
:1008A0005EEA430E08BF20EAD37070BDC4F1200594
:1008B00000FA05F24EEA020E20FA04F301FA05F2FC
:1008C00043EA020321FA04F001F0004121FA04F2A4
:1008D00020EA020000EBD3705EEA430E08BF20EA74
:1008E000D37070BD94F0000F0FD101F000464000AE
:1008F00041EB010111F4801F08BF013CF7D041EA30
:10090000060195F0000F18BF704703F00046520033
:1009100043EB030313F4801F08BF013DF7D043EA04
:100920000603704794EA0C0F0CEA135518BF95EABA
:100930000C0F0CD050EA410618BF52EA4306D1D141
:1009400081EA030101F000414FF0000070BD50EA60
:10095000410606BF1046194652EA430619D094EAEA
:100960000C0F02D150EA013613D195EA0C0F05D1D4
:1009700052EA03361CBF104619460AD181EA030128
:1009800001F0004141F0FE4141F470014FF00000E0
:1009900070BD41F0FE4141F4780170BD70B54FF07B
:1009A000FF0C4CF4E06C1CEA11541DBF1CEA1355FB
:1009B00094EA0C0F95EA0C0F00F0A7F8A4EB0504DD
:1009C00081EA030E52EA03354FEA013100F08880D4
:1009D0004FEA03334FF0805545EA131343EA12639D
:1009E0004FEA022245EA111545EA10654FEA002652
:1009F0000EF000419D4208BF964244F1FD0404F50B
:100A0000407402D25B084FEA3202B61A65EB030566
:100A10005B084FEA32024FF480104FF4002CB6EB23
:100A2000020E75EB030E22BFB61A754640EA0C00A3
:100A30005B084FEA3202B6EB020E75EB030E22BFE3
:100A4000B61A754640EA5C005B084FEA3202B6EB24
:100A5000020E75EB030E22BFB61A754640EA9C00E3
:100A60005B084FEA3202B6EB020E75EB030E22BFB3
:100A7000B61A754640EADC0055EA060E18D04FEA71
:100A8000051545EA16754FEA06164FEAC30343EA11
:100A900052734FEAC2025FEA1C1CC0D111F4801FDE
:100AA0000BD141EA00014FF000004FF0004CB6E7D7
:100AB00011F4801F04BF01430020B4F1FD0C88BF76
:100AC000BCF5E06F3FF6AFAEB5EB030C04BFB6EB81
:100AD000020C5FEA500C50F1000041EB045170BD74
:100AE0000EF0004E4EEA113114EB5C04C2BFD4EBA1
:100AF0000C0541EA045170BD41F480114FF0000E25
:100B0000013C90E645EA060E8DE60CEA135594EAA0
:100B10000C0F08BF95EA0C0F3FF43BAF94EA0C0FA3
:100B20000AD150EA01347FF434AF95EA0C0F7FF418
:100B300025AF104619462CE795EA0C0F06D152EA6C
:100B400003353FF4FDAE1046194622E750EA410650
:100B500018BF52EA43067FF4C5AE50EA41047FF461
:100B60000DAF52EA43057FF4EBAE12E74FF0FF3CC6
:100B700006E000BF4FF0010C02E000BF4FF0010C97
:100B80004DF804CD4FEA410C7FEA6C5C4FEA430C10
:100B900018BF7FEA6C5C1BD001B050EA410C0CBF5F
:100BA00052EA430C91EA030F02BF90EA020F0020C1
:100BB000704710F1000F91EA030F58BF994208BF28
:100BC00090422CBFD8176FEAE37040F001007047E5
:100BD0004FEA410C7FEA6C5C02D150EA013C07D13C
:100BE0004FEA430C7FEA6C5CD6D152EA033CD3D087
:100BF0005DF8040B704700BF8446104662468C4681
:100C00001946634600E000BF01B5FFF7B7FF0028B3
:100C100048BF10F1000F01BD4DF808EDFFF7F4FFDC
:100C20000CBF012000205DF808FB00BF4DF808ED67
:100C3000FFF7EAFF34BF012000205DF808FB00BF8A
:100C40004DF808EDFFF7E0FF94BF012000205DF8AC
:100C500008FB00BF4DF808EDFFF7CEFF94BF012061
:100C600000205DF808FB00BF4DF808EDFFF7C4FF5A
:100C700034BF012000205DF808FB00BF4FEA410CA3
:100C80007FEA6C5C02D150EA013C0AD14FEA430C86
:100C90007FEA6C5C02D152EA033C02D14FF00000C3
:100CA00070474FF0010070474FEA410212F5001201
:100CB00015D211D56FF47873B3EB625212D94FEAA3
:100CC000C12343F0004343EA505311F0004F23FA8D
:100CD00002F018BF404270474FF00000704750EAE2
:100CE000013005D111F0004008BF6FF0004070479F
:100CF0004FF00000704700BF4A0011D212F50012F9
:100D000011D20DD56FF47873B3EB62520ED44FEA63
:100D1000C12343F0004343EA505323FA02F07047E3
:100D20004FF00000704750EA013002D14FF0FF3021
:100D300070474FF00000704780F0004002E000BFB5
:100D400081F0004142001FBF5FEA410392EA030FB6
:100D50007FEA226C7FEA236C6AD04FEA1262D2EB00
:100D60001363C1BFD218414048404140B8BF5B4205
:100D7000192B88BF704710F0004F40F4000020F09E
:100D80007F4018BF404211F0004F41F4000121F0B4
:100D90007F4118BF494292EA030F3FD0A2F10102FE
:100DA00041FA03FC10EB0C00C3F1200301FA03F13C
:100DB00000F0004302D5494260EB4000B0F5000F5F
:100DC00013D3B0F1807F06D340084FEA310102F11E
:100DD0000102FE2A51D2B1F1004F40EBC25008BFD0
:100DE00020F0010040EA03007047490040EB00009A
:100DF000013A28BFB0F5000FEDD2B0FA80FCACF19B
:100E0000080CB2EB0C0200FA0CF0AABF00EBC250C7
:100E100052421843BCBFD0401843704792F0000FB5
:100E200081F4000106BF80F400000132013BB5E708
:100E30004FEA41037FEA226C18BF7FEA236C21D07E
:100E400092EA030F04D092F0000F08BF08467047E3
:100E500090EA010F1CBF0020704712F07F4F04D1B1
:100E6000400028BF40F00040704712F100723CBFC4
:100E700000F50000704700F0004343F0FE4040F4EE
:100E8000000070477FEA226216BF08467FEA2363AC
:100E90000146420206BF5FEA412390EA010F40F497
:100EA000800070474FF0000304E000BF10F00043E3
:100EB00048BF40425FEA000C08BF704743F09643CA
:100EC00001464FF000001CE050EA010208BF7047E5
:100ED0004FF000030AE000BF50EA010208BF70476C
:100EE00011F0004302D5404261EB41015FEA010C81
:100EF00002BF84460146002043F0B64308BFA3F179
:100F00008053A3F50003BCFA8CF2083AA3EBC2535A
:100F100010DB01FA02FC634400FA02FCC2F1200279
:100F2000BCF1004F20FA02F243EB020008BF20F0B0
:100F30000100704702F1200201FA02FCC2F1200216
:100F400050EA4C0021FA02F243EB020008BF20EA0B
:100F5000DC7070474FF0FF0C1CEAD0521EBF1CEA39
:100F6000D15392EA0C0F93EA0C0F6FD01A4480EA27
:100F7000010C400218BF5FEA41211ED04FF0006310
:100F800043EA501043EA5111A0FB01310CF000403C
:100F9000B1F5000F3EBF490041EAD3715B0040EA62
:100FA000010062F17F02FD2A1DD8B3F1004F40EB32
:100FB000C25008BF20F00100704790F0000F0CF005
:100FC000004C08BF49024CEA502040EA51207F3AC9
:100FD000C2BFD2F1FF0340EAC250704740F40000A4
:100FE0004FF00003013A5DDC12F1190FDCBF00F095
:100FF00000407047C2F10002410021FA02F1C2F143
:10100000200200FA02FC5FEA310040F1000053EADE
:101010004C0308BF20EADC70704792F0000F00F02C
:10102000004C02BF400010F4000F013AF9D040EA32
:101030000C0093F0000F01F0004C02BF490011F4C6
:10104000000F013BF9D041EA0C018FE70CEAD153C4
:1010500092EA0C0F18BF93EA0C0F0AD030F0004C44
:1010600018BF31F0004CD8D180EA010000F00040F8
:10107000704790F0000F17BF90F0004F084691F0B6
:10108000000F91F0004F14D092EA0C0F01D14202F0
:101090000FD193EA0C0F03D14B0218BF084608D1B9
:1010A00080EA010000F0004040F0FE4040F4000003
:1010B000704740F0FE4040F4400070474FF0FF0C96
:1010C0001CEAD0521EBF1CEAD15392EA0C0F93EADD
:1010D0000C0F69D0A2EB030280EA010C49024FEA2F
:1010E000402037D04FF0805343EA111143EA1013E8
:1010F0000CF000408B4238BF5B0042F17D024FF4A0
:10110000000C8B4224BF5B1A40EA0C00B3EB510F7A
:1011100024BFA3EB510340EA5C00B3EB910F24BF63
:10112000A3EB910340EA9C00B3EBD10F24BFA3EBE8
:10113000D10340EADC001B0118BF5FEA1C1CE0D1B0
:10114000FD2A3FF650AF8B4240EBC25008BF20F063
:10115000010070470CF0004C4CEA50207F32C2BFB7
:10116000D2F1FF0340EAC250704740F400004FF054
:101170000003013A37E792F0000F00F0004C02BF85
:10118000400010F4000F013AF9D040EA0C0093F04F
:10119000000F01F0004C02BF490011F4000F013BA9
:1011A000F9D041EA0C0195E70CEAD15392EA0C0F11
:1011B00008D142027FF47DAF93EA0C0F7FF470AF49
:1011C000084676E793EA0C0F04D14B023FF44CAF8C
:1011D00008466EE730F0004C18BF31F0004CCAD121
:1011E00030F000427FF45CAF31F000437FF43CAF5D
:1011F0005FE700BF4FF0FF3C06E000BF4FF0010C7F
:1012000002E000BF4FF0010C4DF804CD4FEA400260
:101210004FEA41037FEA226C18BF7FEA236C11D0AA
:1012200001B052EA530C18BF90EA010F58BFB2EB5D
:10123000030088BFC81738BF6FEAE17018BF40F0DD
:10124000010070477FEA226C02D15FEA402C05D191
:101250007FEA236CE4D15FEA412CE1D05DF8040B16
:10126000704700BF844608466146FFE70FB5FFF7A9
:10127000C9FF002848BF10F1000F0FBD4DF808ED61
:10128000FFF7F4FF0CBF012000205DF808FB00BF52
:101290004DF808EDFFF7EAFF34BF012000205DF8AC
:1012A00008FB00BF4DF808EDFFF7E0FF94BF0120F9
:1012B00000205DF808FB00BF4DF808EDFFF7D2FFF6
:1012C00094BF012000205DF808FB00BF4DF808ED39
:1012D000FFF7C8FF34BF012000205DF808FB00BF06
:1012E0004FEA4002B2F1FE4F0FD34FF09E03B3EB33
:1012F00012620DD94FEA002343F0004310F0004F73
:1013000023FA02F018BF404270474FF000007047C8
:1013100012F1610F01D1420205D110F0004008BF67
:101320006FF0004070474FF0000070477BB972B912
:101330000029BEBF00204FF0004106E008BF002892
:101340001CBF6FF000414FF0FF3000F077B8ADF1F7
:10135000080C6DE904CE002909DB002B1ADB00F034
:1013600095F8DDF804E0DDE9022304B0704740425F
:1013700061EB4101002B1BDB00F088F8DDF804E095
:10138000DDE9022304B0404261EB4101524263EBCC
:1013900043037047524263EB430300F077F8DDF8F4
:1013A00004E0DDE9022304B0404261EB41017047F3
:1013B000524263EB430300F069F8DDF804E0DDE935
:1013C000022304B0524263EB4303704753B94AB956
:1013D000002908BF00281CBF4FF0FF314FF0FF303D
:1013E00000F02CB8ADF1080C6DE904CE00F04EF819
:1013F000DDF804E0DDE9022304B07047D0B5FFF763
:101400004BF90C4B002206460F46FFF79DF9FFF7FC
:1014100073FC0446FFF71EF9074B0022FFF794F90F
:1014200002460B4630463946FEF7D6FFFFF764FC0E
:101430002146D0BD0000F03D0000F041704700BFE4
:10144000430803F05533C01A00F03333800800F02E
:101450003330184400EB10104FF0013300F00F3020
:101460005843000E704710B500210446FFF710FFE7
:1014700020B92046BDE81040FFF7C0BF04F100408E
:10148000FFF7BCFF404261EB410110BD2DE9F04781
:1014900086468C460846089E154674461946002B1B
:1014A00040F0C2808542B2FA82F245D94AB1C2F117
:1014B000200300FA02FC2EFA03F3954043EA0C0CD9
:1014C00094404FEA154EA8B2BCFBFEF8230C0EFB6D
:1014D00018CC08FB00F943EA0C43994528D9EB18CE
:1014E00008F1FF3704D2994502D9A8F102072B442D
:1014F000A3EB0903A4B2B3FBFEFC0EFB1C330CFBF5
:1015000000F044EA0344A04214D92C190CF1FF3333
:1015100004D2A04202D9ACF102032C44241A43EABB
:1015200007401EB1D440002334607360BDE8F087EB
:101530004746DDE76346F1E792BB431B01214FEAD3
:10154000154EAFB2B3FBFEFC200C0EFB1C330CFBA4
:1015500007F840EA0343984562D9EB180CF1FF30D5
:1015600004D2984502D9ACF102002B44A3EB080346
:10157000A4B2B3FBFEFC0EFB1C330CFB07F744EAE2
:101580000344A7424ED92C190CF1FF3304D2A742D1
:1015900002D9ACF102032C44E41B43EA0040C0E74B
:1015A000C2F1200320FA03F1954090402EFA03F394
:1015B00003434FEA154EAFB2B1FBFEFC0EFB1C100D
:1015C000190C0CFB07F841EA0041884504FA02F4C3
:1015D00022D969180CF1FF3004D2884502D9ACF148
:1015E00002002944A1EB08019BB2B1FBFEFC0EFBFB
:1015F0001C110CFB07F743EA01439F420ED9EB187D
:101600000CF1FF3104D29F4202D9ACF102012B440C
:10161000DB1B41EA004192E76046E3E76146F7E7FA
:101620006046A3E76346B7E7834206D916B90021AF
:1016300008467BE7C6E900E0F9E7B3FA83F78FB91C
:10164000834201D3724508D8BEEB020460EB03036A
:1016500001209C461EB9002168E73846FAE7C6E932
:10166000004CF8E7C7F1200CBB4022FA0CF41C43F5
:101670002EFA0CF120FA0CF3B84001434FEA14495A
:101680000EFA07F5B3FBF9F81FFA84FE09FB1830D0
:101690000B0C08FB0EFA43EA00439A4502FA07F2E4
:1016A00040D9E31808F1FF3004D29A4502D9A8F1D5
:1016B00002002344A3EB0A0389B2B3FBF9F809FB48
:1016C000183308FB0EFE41EA03418E452CD9611800
:1016D00008F1FF3304D28E4502D9A8F10203214458
:1016E00043EA0040A0FB0298A1EB0E014145CE4623
:1016F000434602D306D14D4504D2B9EB020E68EB46
:1017000004030138002EA6D0B5EB0E0261EB0301F5
:1017100001FA0CFC22FA07F34CEA0303F940C6E98C
:10172000003198E74046C5E74346D9E7000000008E
:101730002DE9F047824688B073484FF0FF324FF0F2
:10174000FF3312F01FF804460028F5D1DFF8BC8102
:101750006F4F704E504613F065FF4246214650468B
:1017600013F05DFF3A460121504613F058FF324610
:101770000221504613F053FF504613F053FF664AC0
:101780000421504613F04BFF644A0521504613F0E4
:1017900046FF634A0621504613F041FFD8F8040083
:1017A000FEF768FF54A3D3E90023FFF7F7F80446D8
:1017B000D8F800000D46FEF75DFF02460B462046B6
:1017C0002946FEF70BFECDE904017868FEF752FFCB
:1017D00049A3D3E90023FFF7E1F8044638680D4632
:1017E000FEF748FF02460B4620462946FEF7F6FD67
:1017F000804670688946FEF73DFF3FA3D3E900238A
:10180000FFF7CCF8044630680D46FEF733FF02467A
:101810000B4620462946FEF7E1FDDDE904230D468F
:10182000044619461046FEF78FFF424606460F460D
:101830004B4640464946FEF787FF02460B46304678
:101840003946FEF7CBFD2B4606460F462246294673
:101850002046FEF779FF02460B4630463946FEF732
:10186000BDFD13F061F826A3D3E90023FEF7B4FD14
:1018700021F0004303930290DDE90201294B2A4D38
:101880000022FFF7F1F970B302238DF8183000221F
:10189000002306A92548264C1BF0E3F9012625481C
:1018A00014F06DF82E70BFF35B8F54E8003F3344A3
:1018B00044E80032002AF8D1BFF35B8FBFF35B8F9F
:1018C0002168BFF35B8F2878079100F0F3FB0422B7
:1018D00007A9304600F042FC236800931648DDE972
:1018E000022314F04CF842F2107000211BF049FC66
:1018F00000232B7020E700BF0000000080842E41F1
:101900001F85EB51B89E234080100020C01D002091
:10191000B81D0020B01D0020A81D0020A01D002023
:10192000981D002000000440782A002008100020A4
:10193000E41D00202DF8010851F801080000000006
:10194000F0B5044685B013F06DFE6A4620460D21C1
:1019500013F065FE02AA2046102113F060FE0398E2
:10196000FEF788FE1AA3D3E90023FFF717F8044611
:1019700002980D46FEF77EFE02460B46204629469B
:10198000FEF72CFD064601980F46FEF773FE10A3E6
:10199000D3E90023FFF702F8044600980D46FEF74E
:1019A00069FE02460B4620462946FEF717FDFFF763
:1019B0007BF9094B04B21C8039463046FFF79CF98D
:1019C000064B81B22046198000F060FB05B0F0BDE7
:1019D0000000000080842E41462A0020442A002076
:1019E00070B5144606460846FFF760FA2146FFF731
:1019F000B1FAFFF738FD0E4D80FB05450AA3D3E988
:101A0000002320462946FFF791FC0A4A3060002354
:101A100020462946FFF78AFC064A0023FFF786FC8A
:101A2000726070BDAFF300800010A5D4E800000024
:101A30003AA3950040420F0070B51446064608468A
:101A4000FFF734FA2146FFF785FA1349134DFFF7E4
:101A500035FBFFF708FD80FB05450BA3D3E9002309
:101A600020462946FFF762FC09A3D3E90023306032
:101A700029462046FFF75AFC094A0023FFF756FC87
:101A8000726070BDAFF3008000209BF35E10000019
:101A900080A812010000000000002041D8EF2F00B4
:101AA00040420F0000000000032970B504460D46B7
:101AB00005D0072951D0BDE870400CF093BF002A33
:101AC00038D0072A40F0A68058681A68584BC117CA
:101AD000C2FB0301012871F100033BDB554BC01829
:101AE00041F100014EA3D3E90023FFF71FFC0228B8
:101AF00026690ED010280ED004280ED0082829D12F
:101B00002946204617F0A1FC002808DA6FF00400EF
:101B100070BD0025F4E70125F2E70225F0E7464B0A
:101B200033F815103D20A1FB0001FFF7D5F9F06057
:101B30000020EDE71988414B33F8020B814206D1B2
:101B4000D1B220460CF05CFF0028F1DADEE701326A
:101B50000C2AF1D16FF01500DAE7002A4BD0072AE2
:101B600058D15A681D683248D11713460A46C5FB3A
:101B70000032B425A3FB0501012B05FB021172F114
:101B8000000228DB2E4BC01827A3D3E9002341F124
:101B90000001FFF7CBFBFA2825D0B0F5FA7F24D05F
:101BA000B0F57A7F23D0B0F5FA6F22D07D28D1D15D
:101BB000042529462046266917F057FC0028A5DB96
:101BC000204B33F8151041F21710A1FB0001FFF76D
:101BD00083F9F061ACE71C4BC01861F1000112A35E
:101BE000D3E90023D5E70025E3E70125E1E7022556
:101BF000DFE70325DDE71988104B33F8020B81423C
:101C000004D1D1B220460CF0D1FE9DE701320C2A5E
:101C1000F3D19FE76FF085007AE700BFAFF3008054
:101C20003AA3950000000000D8EF2F00000000004C
:101C300040420F009DD14A00F8F7010800F8010862
:101C4000ECF71700EEF701081408E8FF08B506489E
:101C500011F064FD054A0648136801331360BDE8BE
:101C6000084013F08CBE00BF80100020C81D00206B
:101C70001EF8010837B5084C01258DF804500022E4
:101C8000002301A920461AF0ECFF00214CF250304D
:101C90001BF077FAF1E700BF08100020F0B570489C
:101CA0008BB013F06CFE6F481AF033FF28B96E4802
:101CB00013F065FE00200BB0F0BD6C481AF029FF50
:101CC00008B96B48F4E76B481AF023FF08B96A4873
:101CD000EEE76A481AF01DFF08B96948E8E7694865
:101CE00013F06FFC0028E5DB674813F06AFC00285E
:101CF000E0DB00F0FFF90422644B039303A9012009
:101D000000F04AFA0446624813F039FE2146614861
:101D100013F035FE0399604813F031FE5F480399D4
:101D200013F02DFE042C5E4B05BF039A5D485E4800
:101D30001A601CBF00221A6013F021FE5B4813F0EA
:101D40001EFE5B4A68230026CDE904230696454C17
:101D5000A5682F685FB9574813F011FE002005F001
:101D6000F9F8014600B3544813F009FEA2E705ABA9
:101D7000324603212046B8470028ECDB2F680FB914
:101D80004E48E9E705AB324607212046B847002810
:101D9000F6DBAB680BB94A48DEE74A4A04A920469D
:101DA00098470028DAD0F6E7474D0FCD05AC0FC4B1
:101DB0002B6823600123454900930322444B05A867
:101DC00005F042FE014608B14248CDE7424D434E80
:101DD000434F04464FF0FF324FF0FF3304A928462B
:101DE00011F044FB9DF81010304613F0C8FD012C93
:101DF00012D0022C2BD03B4813F0C1FD9DF81040AF
:101E0000012C22D0A31E5C425C416400002144F6F8
:101E100020601BF0B6F9DDE7384613F0B0FD9DF801
:101E20001040022C08D11748002113F0E4FB16489B
:101E3000012113F0E0FBE9E70C48FFF781FD0D48B5
:101E400083684FF480415B6998470124DEE72648A8
:101E500013F095FD0C48002113F0CDFBF5E700BF12
:101E600087F8010838D80108A3F80108E4D7010869
:101E7000C5F801085CD60108F8F8010878D6010811
:101E80000FF9010824E001081CE00108EFBEADDEF7
:101E900026F901083EF9010854F901086EF9010814
:101EA000E41D002084F90108B4F90108EAF90108E9
:101EB0000100030002FA010884FA010834FA01085B
:101EC0005DFA01084D1C0008A8DF010834E0010894
:101ED0002CE00108A4FA010808100020CAFA010841
:101EE000FAFA0108DEFA010811FB01081FB5022405
:101EF0000294044C0194BDF81840009415F098FF2A
:101F000004B010BD462A00201FB502240294044CE0
:101F10000194BDF81840009415F08AFF04B010BD7C
:101F2000442A00201FB501240294044C0194BDF8FA
:101F30001840009415F07CFF04B010BD782A0020F2
:101F40001FB504240294044C0194BDF81840009479
:101F500015F06EFF04B010BDE41D0020044A054BCF
:101F60000548012914BF1146194613F008BD00BFEA
:101F70004BFB010843FB010854FB010830B50B4D36
:101F80000FCD89B003AC0FC42B682360012308492F
:101F900000930322074B03A805F056FD014610B13C
:101FA000054813F0ECFC09B030BD00BFBCDF0108F0
:101FB00044E101083CE10108A4FA010870B5037886
:101FC0008AB004460E4607AD032B20D8DFE803F0A5
:101FD00002191B1D1149284613F036F9059563783F
:101FE0000493A3780393E3780293237901936379AD
:101FF0000093A3790A4A1E21304613F0CDFC0AB0A3
:1020000070BD0849E7E70849E5E70849E3E7084AFA
:102010000A21284613F0C0FCE0E700BF6DFB010871
:102020008FFB010874FB01087BFB010885FB01089D
:102030006314020810B588B00C4614F0E3FE69463C
:10204000FFF7BCFF34B106482246694613F097FCFF
:1020500008B010BD0348694613F091FCF8E700BFD3
:10206000B2FB0108D0FB010810B588B00C4614F093
:10207000C9FE6946FFF7A2FF03482246694613F0EE
:102080007EFC08B010BD00BFDFFB010810B5064C98
:1020900006492046022213F0C9FA20460449BDE849
:1020A0001040022213F0C2BA60E00108462A002064
:1020B000442A002013B50C4C00918DF807000B4A00
:1020C0000C21204608F0DEFC0DF10701012213F07F
:1020D000ADFA074A0C21204608F0D4FC04226946D8
:1020E00013F0A4FA02B010BD4CE0010882F7010819
:1020F0007EF7010830B585B0134C20461AF009FD73
:1021000028B9124813F03BFC204605B030BD104DF5
:102110004FF47821AC622960204601AA16F075FBC5
:10212000044620B101460B4813F029FCECE7029B62
:10213000EB60284603232B8201F064FE044600284E
:10214000E2D001460448EFE720D7010812FC01085D
:10215000E81D00202AFC010846FC010870B5134662
:102160000E4615460A460146084802F007F8041EC6
:1021700005DA0748214613F002FC204670BD0548E9
:102180003246294613F0FBFBF7E700BFE81D0020AD
:1021900060FC010874FC010810B513460A460146AC
:1021A000044814F07CF8041E02DA034813F0E7FB3D
:1021B000204610BDE81D0020AEFC01082DE9F84FB7
:1021C0008A4600AF002974D004680E1F361BF5083C
:1021D00026F0070604EB0608B8F802B01BF0010B66
:1021E00016D1E94688B06A46334BC2E9053103236C
:1021F00042F8103F31485B464FF4C25102F0B4FB45
:10220000CD468BF31188BFF36F8F0423184602DF8E
:102210002946204613F01EFA284434F83030C01AFC
:10222000854217D0E94688B06A46254BC2E9053A8F
:10223000032342F8103F214800234FF4C25102F01B
:1022400093FB0023CD4683F31188BFF36F8F0423E4
:10225000184602DFB8F8023023F00103A8F8023074
:102260002946204613F0F6F905EB000804EBC803F5
:102270005B88DA0708D44146204613F034FA424618
:102280002946204613F072FAA65BAE1B04EBC60388
:102290005B88DB0709D43146204613F024FA2A462E
:1022A0003146204613F062FA35462946204613F09F
:1022B000D6F9BD46BDE8F88F28FD010848DF0108C2
:1022C000FFFC01082DE9F04F91B08407009302F064
:1022D00004030293C2F3C20303F10103DDF8688033
:1022E000039205460E46059340F0BA81041D30B1B5
:1022F000072909D86FF01B0011B0BDE8F08F01F07D
:1023000007063444C6F10806009B4FF00009591E29
:102310004FF0040A4FF0FF330193CDF810904F4671
:10232000CB4653460DB1009A22600598002800F371
:10233000E8809848009A824203D397488242C0F0CE
:10234000E080039AA4EB050E92074FEA9E0000F18D
:1023500003810F2F00F2B180002D00F0058107F1FD
:1023600040020DEB020C019A0CF8200C0CF8102C1A
:10237000049801300490E7E07A285DD84B280ED805
:10238000472859D829282DD8252852D054D8202874
:102390007AD02338D0F1000B4BEB000B74E04C38B3
:1023A0002E2849D8DFE800F0704848484848484897
:1023B000484848484B484848484848484859484B86
:1023C0004B595959704B6D487048184B1848488202
:1023D0007F4B48484B487F0000204FF0000B4FF0E8
:1023E000040A38E02A38C0B2012202FA00F010EAEA
:1023F0000E0F49D110F0625C2FD110EA020B43D0CE
:102400006046013C5444B4FBFAF40AFB04F4002D8A
:1024100061D0A3EB050CA444B4453FF66BAF002894
:1024200068D1042B47D158F8043B236004340423BB
:102430002AE0019A013A01924FF0000B24E011F8D2
:10244000010C6C2834D111F8023C00206C2B83461F
:10245000C5D14FF0080A5346D3E708F1070828F022
:1024600007080734F8E802AB24F0070435B10698F2
:102470002044B0423FF63EAFC4E900AB08344FF011
:10248000000B4FF0080A534611F8010F002878D0CE
:10249000BBF1000F7FF470AF2528F5D1019B01330C
:1024A00001934FF0010B4FF0040AECE7584694E714
:1024B00000208346A5E7082B02D06FF015001BE72C
:1024C00008F1070828F00708F8E80223C4E9002308
:1024D00008340823D8E768B9042B02D108F10408AE
:1024E000A4E7082BE9D108F1070828F0070808F14C
:1024F0000808EDE7059A013A059258F8042B009276
:1025000010E7039A900720D5A4EB050E4FEA9E0032
:102510004FF0010CBEF5007FCFD20F2FCDD8F5B113
:1025200007F140020DEB020EC0B2019A0EF8200C2A
:102530000EF8102CBCF1000F3FF41AAF60F07F00D2
:102540000EF8200C09F101090137C5F10802043425
:1025500006924FF6DA7E97E74FF0000CDAE7BCF10F
:10256000000F01D00136EFE7029802360028EBD1C8
:102570000098CDE90631FDF723FEDDE9063106447A
:10258000E2E7631BB3F5806F97D23DB9A6F108046B
:10259000E018B1E6E4D3010828300208029A286066
:1025A0009B082B709DF81030C2B1EB7085F802903B
:1025B000B9F1000F05D008A80022C5F1010C97421F
:1025C0000ED1C5F101030DF120084FF0000A01936F
:1025D0000DF1300B574512D1601B8DE66B70E5E7AE
:1025E00010F8013B190608D50CEB040EB64503F0B4
:1025F0007F033FF67FAE04F8013B0132DFE7B9F11C
:10260000000F03D098F90020002A17DB029BD3B1FA
:102610001AF80B2004F8012B0022019B1819104412
:10262000B0423FF667AE98F8000004F8010B00993D
:1026300003922046FDF732FE039A14440AF1010A80
:1026400008F10108C6E798F8002055F822300093F9
:10265000029B45F822300098FDF7B2FD421CDCE7F2
:102660006FF00D0048E600BF2DE9F04F97B000AFC6
:1026700090F802A0D7F880B03B62CBF3C0030446C9
:10268000FA62BB61894641B9457800780AEB80005F
:1026900020444D4517D8A0EB0409E378FB61BAF15B
:1026A000000F02D01BF0010F16D1FB6953BBFB6A70
:1026B0001BB13A6A4946204698474D4628465C3742
:1026C000BD46BDE8F08F461C3046FDF779FD013070
:1026D000304409F10109DCE7237862687A62FA6A1A
:1026E0009900796104EB8301002A40F000814D4696
:1026F0000E4601EB0A094FF000084E454CD101EBA4
:102700000A0610E01BF0020FD1D023789A007A61FC
:1027100062687A62FA6A04EB8301002A77D14D4637
:1027200001EB0A0690461BF0050F0CBF02230123A4
:10273000FB62FB6906EB430A0BF00203BB625645E2
:10274000BCD016F8021B16F8013C54F82390994BA4
:10275000994502D3984B994536D3BB69002B40D09D
:10276000786A13F0D1F800283BD0E9468AB06A466F
:10277000924B53617B6AC2E906314FF400731384B4
:102780008F4B42F8103F8F4800234FF4125102F054
:10279000EBF8023DCD46D2E716F8013BF96254F85A
:1027A0002300FDF70DFDD7F88430F96A01304BB1F5
:1027B000D7F8883098453EBFD7F8843023F8180002
:1027C00008F10108054498E7BB6923B1786A13F062
:1027D0009BF80028C9D11BF0010F05D1FB6AED1A47
:1027E000ADE7BB6A002BAAD04846FDF7E9FCD7F855
:1027F000843053B1D7F8883098453FBFD7F884204C
:10280000431C22F8183008F10108054497E7BAF193
:10281000000F72D01BF0040672D0D046002607F1DC
:10282000480052463B61B962FDF738FDB96A3B6921
:1028300001EB0A02BA62FA69F9695200FA60BA6AEF
:1028400002EB41023A610BF00202BA603A69B96ADE
:102850008A4257D162787A621BF0020F32440CBF71
:102860004FEA580100211BF0010FD2B240F09F80C7
:102870001BF0040F14BF40460020BB616270A070C3
:10288000E1703A6A7969FB6A20469847051EFFF6AF
:1028900015AFBB6923707B6A6370FB69E3704146C7
:1028A0003A6AFB6A84F802A007F148009847B0F141
:1028B0000008C0F2BB807B693A6AA9EB0A01C91A19
:1028C000FB68C91AD7E90A0398470028C0F2B0800C
:1028D000A84408EB00054FF0000B07F1380AB34598
:1028E00072D300213A6AFB6A08469847E6E65646E4
:1028F0004FF0000807F1380093E75646D04697E7B7
:10290000B04695E7BA6A12F8021BBA6212F8015C87
:10291000284A54F82500904202D3274A90421ED3F9
:10292000BA6932B1786A7B6012F0EEFF7B680028EA
:102930008CD1BA6802BB08F1280207F1300C08F10B
:102940000100944407F1580252FA80F008F102089D
:102950000CF8101C5FFA88F800F8105C76E7BA698A
:102960003AB1786A7B6012F0CFFF7B6800287FF471
:102970006DAF1BF0010F09D006F1280207F13000FE
:10298000711C161806F8205CCEB25FE71BF0040F2E
:102990003FF45CAF08F1280207F1300008F10101B3
:1029A00002EB000808F8105C5FFA81F84EE700209F
:1029B00063E700BFE4D301082830020855FD010891
:1029C00004000001A8DE01081BF80A3087F8373040
:1029D00054F82390D7F884302BB3D7F888309B4530
:1029E00021D2D7F8843033F81B803A6AFB6A012180
:1029F00007F13700984700281ADB0544B8F1000FAB
:102A000006D14846FDF7DCFB00F101081FFA88F803
:102A10003A6AFB6A414648469847002808DB054465
:102A20000BF1010B5BE74FF00008DEE7454645E69A
:102A3000054643E6014B1860704700BFC8080020F8
:102A400030B587B00025CDE903010446009503A900
:102A50000548059500F06EF8DDE904309842B8BFEE
:102A6000255407B030BD00BF57590108F0B5094ED5
:102A7000016802460A2700200B4601311C78355DAB
:102A80006D0701D41360F0BD07FB0043A3F13000D4
:102A9000F2E700BF5DF601082DE9F84F15469A46AA
:102AA000D378234A12F803B06F2B81460F460BF000
:102AB000030B2BD026D8582B0CBF10260A26DDF886
:102AC00028803246002348463946FEF77FFC092A13
:102AD00008F1FF38D4B21ED83034B145E4B277F1F2
:102AE000000788F8004001D3D04511D82B789B0609
:102AF00005D5082E15D1AB7843F00803AB704046DE
:102B0000BDE8F88F03F0F703702BD5E70826D6E76A
:102B100081460F46D5E7BBF1010F0CBF3734573460
:102B2000DBE7102EEBD1AB7843F01003E6E700BFF4
:102B30005DF601082DE9F04F9FB0824603911746DC
:102B40001C460025387810B9284600F0A0BD25287D
:102B500009D00399D0470028C0F299857B1C013524
:102B60000693069FEEE71822002110A812F0FCFA47
:102B70007B78252B00F0BA800023791C98469E466E
:102B80009C4618460E4611F8012B2B2A00F0E180D6
:102B900000F2D880202A00F0DF80232A00F0DF80B6
:102BA0002BB19DF8483043F040038DF84830B8F120
:102BB000000F05D09DF8483043F020038DF84830D1
:102BC000BEF1000F05D09DF8483043F010038DF89A
:102BD0004830BCF1000F05D09DF8483043F00803A1
:102BE0008DF8483028B19DF8483043F004038DF843
:102BF00048309DF8483003F04401442903D16FF375
:102C000086138DF848309DF848300E9643F08003C7
:102C10002A2A8DF8483040F0A7809DF8493043F0CB
:102C200001038DF84930731C1A782E2A9DF849202B
:102C30000CBF0121002161F341028DF849200CD124
:102C40005A1C0E925A782A2A40F09E809DF84920FC
:102C500042F004028DF8492002331A786C2A00F001
:102C6000BF8000F2A180682A00F0A7806A2A00F0E5
:102C7000C0804C2A00F0C58013F8012B0693782AF7
:102C80008DF84B2000F205816D2A00F2C780692A79
:102C900000F2FF80572A00F2DE80412A04D0A2F120
:102CA0004503022B00F2F5809DF84A3002F0DF0266
:102CB0000421A2F1410661F3020372429DF849101A
:102CC0008DF84A30724162F3C7110A068DF8491037
:102CD000CBB200F11D8103F07802182A40F0078181
:102CE0006FF3C6038DF849300023F6E08DF84B30C2
:102CF000BB1C06939DF849209DF84A30D10703F08C
:102D0000070040F1078154F8041B0491002908DAF8
:102D10009DF8481041F004018DF84810049949428B
:102D20000491560740F1FE8054F8046B002E80F2A7
:102D3000FD809DF849206FF341028DF849204FF046
:102D4000FF36F3E02D2A0DD0302A7FF429AF01237E
:102D500018E74FF0010C15E74FF0010E12E74FF0A6
:102D600001080FE701200DE70EA8FFF77FFE0E9B7D
:102D7000B3423FF459AF9DF848201390C00F60F361
:102D800041028DF848204FE70EA8FFF76FFE9DF82F
:102D900048301490C3F3400242EAD07262F3410318
:102DA0008DF848300E9B58E7742A26D07A2A7FF493
:102DB00063AF9DF8492006210CE05A78682A9DF8F7
:102DC000492006D1012161F3C6028DF84920023362
:102DD00052E7022161F3C6028DF8492001334BE727
:102DE0005A786C2A9DF8492001D10421EBE7032190
:102DF000F0E79DF849200521ECE79DF849200721DF
:102E0000E8E7BDF8482022F4F04222F0020242F442
:102E1000804242F00202ADF84820DFE76E3AD3B2BA
:102E200001229A4040F282431A429DF8493037D13C
:102E300012F0240F5FD1D1072BD59DF84A2003F063
:102E40007803A3F14000032161F3020243428DF8AD
:102E50004A20434141E0A2F15801C9B2012000FAE1
:102E600001F111F4624F7FF41FAF40F601031942E4
:102E70009DF849301AD111F4043F0AD09DF84A2038
:102E800060F3020203F07803402B8DF84A207FF4B0
:102E90002BAF9DF8483043F001038DF8483023E70D
:102EA0009DF84A20022161F30202EBE79DF84A10E7
:102EB000022003F0780360F30201402B8DF84A10E2
:102EC00002BF9DF8481041F001018DF84810632AB7
:102ED0007FF40AAF003B18BF01239DF84820C2F3DE
:102EE00040010B4363F341028DF8482002E713F0E1
:102EF000380FCED1F8E69DF84A20032113F0780F61
:102F000061F302028DF84A2014BF01230023E4E795
:102F10000123E2E79DF948100029B4BF13994FF04F
:102F2000FF31FDE691077FF50AAF149E9DF8491029
:102F300000220428CDE9132207D18A0705D49DF980
:102F40004920002AACBF06260D2603F00703012BFB
:102F5000C1F3C30132D1CB1E042B04D8DFE803F048
:102F6000204545202000236801294FEAE372CDE97E
:102F700010321BD19DF94030DA17CDE910320434FC
:102F80009DF8483005939B074FD0069B03993A461E
:102F9000504612F047FD0028C0F279830544E0E571
:102FA00054F8043BDA17CDE91032E9E70229E6D1FB
:102FB0001AB243F3C033CDE91023E0E7022B24D14A
:102FC000CB1E042B04D8DFE803F0181010181800EB
:102FD000012954F8043B4FF0000214D00229CDE936
:102FE0001032CDD19BB21093CAE7073424F0070406
:102FF000F4E80223CDE91023C2E754F8043B109310
:1030000000231193BCE7DBB2CDE7042B08D10734D2
:1030100024F00704D4E900230834CDE91023AFE7F6
:10302000032BADD154F8043BDDE79DF84B80B8F19C
:10303000780F3FF696ADB8F1570F5CD8B8F1250F71
:1030400000F0A480B8F1240F7FF68BADB8F1410FEA
:1030500004D0A8F14503022B3FF683ADDDE9102330
:10306000002BC0F24D810599080700F14C81C1F396
:1030700000194FEA4919C3F30A51C3F31303002996
:1030800040F0448152EA030014BF4FF0010C4FF0AE
:10309000000CD80240EA5250D702CDE90C70B8F1CA
:1030A000460F47EA010740EAE17008BF4FF06608A3
:1030B000384300F0B881BCF1000F10D01B0343EA85
:1030C000125317033A4618464FF0000C002880F2BE
:1030D0005681BCF1000F40F05981CDE90C730D9B76
:1030E00043F00043A1F2FE3B0D930021DDE90C23E8
:1030F0000F46052060E1A8F15803202B3FF631ADC3
:1031000001A252F823F000BFD3320008632B00085D
:10311000632B0008632B0008632B0008632B000857
:10312000632B0008632B0008632B00085D30000848
:10313000632B00087F320008933200085D300008DE
:103140005D3000085D300008632B000893320008F2
:10315000632B0008632B0008632B0008632B000817
:10316000D9320008D332000823320008632B00084C
:10317000632B00089D310008632B0008D332000840
:10318000632B0008632B0008D332000803994046E4
:10319000D0470028C0F27B820135E2E4002E109F68
:1031A0003BDB3146384612F0ADF8002F3FF4D9AC86
:1031B0003E18F31B4FF000099DF84A2012F0100151
:1031C000059100F05982023312F04002DDF84C8084
:1031D000089218BF149ACDF81C80434418BF9B185E
:1031E000049A002A40F36382D31A9DF8482004937E
:1031F0005007C2F3800B00F15A82510640F14A8217
:10320000B9F1000F07D003994846D0470028C0F213
:103210003E820135D94630223DE23846FCF7D0FFE8
:10322000C6E71098002800F022820DF17503009384
:1032300012AA17AB0021FFF72FFCBDF84A3003F0AC
:10324000EF0343F4F04343F010030746ADF84A3070
:103250004FF00009002E0CDB9DF848200DF175039E
:10326000DB1B6FF386129E428DF8482001D9F31ABA
:103270001393002F3FF475AC0DF175066DE0109BB4
:103280008DF85C304FF000090DF15D0617AF01239A
:1032900092E7059B1F0758BFC3F30019DDE9102310
:1032A00054BF4FEA49194FF02B09002B06DA52425E
:1032B00063EB4303CDE910234FF02D090DF17503A6
:1032C0000093DDE9100117AB12AAFFF7E5FB0746F3
:1032D000C0E74FF00009F1E7109B07293FF641AC2A
:1032E000DFE801F00C04060C08080C0C1D7038E433
:1032F0001D8036E4EA17C3E9005232E41D6030E471
:103300004FF02D09B7E64FF02B09B4E640F2FF70FD
:10331000814231D108F10108A1495FFA88F81343CD
:1033200011F8081001F003011ED101290BBF492338
:1033300069234E216E210CBF462266228DF85C3037
:103340009DF848308DF85D106FF386138DF85E2080
:103350008DF848300DF15F0617AFF31BB9F1000F80
:103360003FF42AAF013327E7012915BF6E234E230F
:10337000612141211A46E1E74FF0000C89E69218DD
:1033800001F1FF3140414FF0010C9FE6CDE90C20E7
:10339000A5E6520842EAC3725B08B3F1333F5946CF
:1033A0000BF1010BF5D200FB03FCA2FB002301F1A2
:1033B000020B6344013F01211BF1020FE9DB09B15C
:1033C000CDE90C23BBF1000FDDE90C322EDCCBF193
:1033D0000401A1F120000BF11C0B02FA0BFB22FAF5
:1033E00000F0CA40CB40079208F0DF0243EA0B032B
:1033F000472A43EA00037ED1F91C01DBBE422BDAE7
:10340000A8F10208002E5FFA88F87DDD9DF84820BB
:10341000920606F1FF3677D4B6F1000B18BF4FF0D5
:10342000010B721C27E04FF0000B5EE6023342F105
:1034300000020CA8CDE90C3212F0C5FADDE90C321D
:103440000BF1FF3B0137DB185241002A0BF1FF3B28
:10345000F9DACDE90C32B5E79DF848209006A6EBE5
:1034600007064ED4B6F1000B18BF4FF0010BF2194E
:103470004FF066084BD4102AA8BF102210200B90E2
:103480004FF000610020CDE90E01DDE90E01002AB8
:103490003FD1079A1B1842EB0101B1F1805F47D27F
:1034A000CDE90C31059BB8F1660F03F0200240F026
:1034B000BE80002F47DC30238DF85C30002A71D1AC
:1034C000002E40F3B7812E238DF85D3087B17B420B
:1034D000B342A8BF33469DF84A201393002BA6EBB6
:1034E0000306D4BF0023012363F345128DF84A205D
:1034F0000DF15E0340E0B8F1660F4FF0000BB6D05F
:103500008FE74FF0000BB2E74FF0000B89E7002286
:10351000B4E7400840EAC1704908CDE90E010EA8A1
:10352000CDE9082312F04FFA089A099B013AACE75B
:103530005B0843EAC1730CA84908CDE90C31013797
:1035400012F041FAAEE717AB0B9900290BDD0BA97E
:103550000CA80792059312F04EFA059B079A03F800
:10356000010B013FF0D11397AAB9002E40F36081FF
:103570002E2103F8011B0027002E1CDD0B9A002AC8
:1035800019DD0BA90CA8059312F035FA059B013E35
:1035900003F8010BF0E72E2203F8012BEBE700BF45
:1035A0005CF601082E238DF85D30002FA0D0002E90
:1035B0008DDC0DF15E03BBF1000F4CD114961E465D
:1035C00008F0DF03452B21D1002FBABF7F422D2306
:1035D0002B23632FC8BF64227370C2BFB7FBF2F303
:1035E00003F1300102FB13774FF00A0286F80080E6
:1035F000CABFB17002360336B7FBF2F303F13001F4
:1036000002FB13733033317073700236139B002B3F
:103610002BDC149B002BD4BF002301239DF84A20F0
:1036200063F3861200238DF84A20337094E60BA9C9
:103630000CA8059212F0DFF9059A8DF85C0030288D
:1036400018BF07F1FF3712B9002E40F3F3802E2385
:103650008DF85D304CE71E46013B16F8012C302AF0
:10366000F9D02E2A08BF1E46AAE70123D6E7734EDB
:103670008146771F05239FE5110748BF0133A3E566
:10368000104609920399D0470028099A05DA1FB01D
:10369000BDE8F08F2022DDF810B0594600290BF16B
:1036A000FF3BEDDC049BCDF810B02B445D1AB9F163
:1036B000000F05D003994846D0470028E7DB0135C5
:1036C000089B002B79D09DF94930002B29DBDFF8CE
:1036D00070913B46187819F8002052079B4603F179
:1036E00001033FD49DF84A30EF1B98065F4407D48E
:1036F0004246002A08F1FF383BDC079B3B449F1AF7
:103700009BF800002E280AD10399D0470028BEDB81
:10371000B8F1000F07F1010731DC0BF1010B5D4639
:1037200038E0B94699F800007028C84609F1010947
:1037300013D1EF1B149D47443D44EB1B002B34DC9D
:10374000039933464246504612F06CF900289EDB3E
:103750003844049E0546064465E00399D047002896
:10376000E0DA94E705930399D0470028059BB1DA86
:103770008DE703993020D0470028B9DA87E703990D
:103780003020D04708F1FF38C0E70399D047002820
:10379000FFF67DAF287819F800305907A84605F1E3
:1037A0000105F2D4A7EB0B07C4E703993020D047FB
:1037B0000028FFF66CAF0137BFE79DF84A30DA0604
:1037C00001D41B0706D503993020D0470028FFF607
:1037D0005EAF0135059B3BB103999DF84B00D04787
:1037E0000028FFF654AF0135A84406E003993020C5
:1037F000D0470028FFF64BAF0135A8EB0503002B9F
:10380000F4DC039933463A46504612F00BF900288F
:10381000FFF63DAF28449CE703992020D0470028BD
:10382000FFF635AF0135731B002BF5DCFFF799B9B7
:103830001746C0E60DF15D03BDE600BF0EFE0108B0
:103840005DF60108034A536823F002035360002029
:10385000704700BF002004E0EFF31180102383F3D2
:103860001288BFF36F8F094B1A683AB9084A11687A
:1038700041F4807111601168C905FCD51A680132E4
:103880001A6080F31188BFF36F8F70471C1E0020F1
:103890000070004010B5EFF31184102383F31288F9
:1038A000BFF36F8F134B1A68C2B9BFF35B8F124B14
:1038B000012253E8001F002903D143E8002000281B
:1038C000F7D1BFF35B8F04D10C4A0D48022112F0EF
:1038D00097FD84F31188BFF36F8F10BD012A01BFDC
:1038E00008490A6822F480720A601A68013A1A606C
:1038F000EFE700BF1C1E0020181E00201AFE010862
:1039000068DF010800700040084B1A6842F400723A
:103910001A601A6842F480621A601A6842F480726F
:103920001A60034B034A1A60704700BF0020024030
:103930001C0C002000093D0073B504460821C06A34
:10394000124E12F003FC4FF6FF726368ADF80020D0
:103950008DF80620E268191833401344181A002520
:1039600060606846ADF80210ADF8045012F046FBF6
:103970006946204612F009FC2046211D12F02FFB5B
:10398000636828463340A36002B070BD0000FFFFAB
:103990002DE9F041C368056800AF0E0CE846090C3C
:1039A0008AB00446360403FB01556A461149516149
:1039B000114913620523C2E9061542F8103F0F486A
:1039C00000234FF4245100F0CFFFC546A06AE268FF
:1039D000294612F021FE50B9E26AE3685279314675
:1039E000204612F0D1FA002818BF6FF00500BD463E
:1039F000BDE8F0815BFE0108AE000208E8DE0108C8
:103A00002DE9F04782B06C4600AF88B081460D4684
:103A10004B886A461E4951611E49C2E906130423B8
:103A200042F8103F1C48DFF874A000234FF4045103
:103A300000F09AFF0821D9F82C00A54612F086FB69
:103A40002C68241A80462C6004EA0A06B4421CD36F
:103A5000A0B218B90837BD46BDE8F08708233A463A
:103A60002146484612F082FA0028F3D13946A0B226
:103A700012F058FB30B17B88BA882C6006EA0A063F
:103A800013441E44A4EB0804E0E70020E2E700BF73
:103A90007CFE010899000208E8DE01080000FFFF33
:103AA000F0B583B06E4600AF88B0838804464FF609
:103AB000FF756A460F4951610F49C2E90613042395
:103AC00042F8103F4FF404510C48002300F04CFF23
:103AD0000023B546BB803846A3687B803D80BD711E
:103AE00012F08CFA3946204612F04FFB0C37BD46D7
:103AF000F0BD00BFA3FE01087E000208E8DE010859
:103B00002DE9F04F9FB0044600AF24220D4607F187
:103B10005400002111F028FBE06A082112F016FB86
:103B200063681B0C1B04834607F1100120463B61B0
:103B300012F055FA3B69E6681E44A6EB0B06082313
:103B400007F11C02314620467E6112F00FFA002870
:103B5000C0F24C81E36A07F11C025979002312F884
:103B6000010B814240F02F810133082BF7D1A3686C
:103B700062685B449A4280F01F8139692046FFF7F2
:103B800007FF33E1FB8B360C36041E447E6107F1E0
:103B9000240207F114012046D7F8149012F035FBE7
:103BA000002840F0238107F124011FFA89F012F068
:103BB000B9FA002835D06368BB6107F12C0207F120
:103BC00018012046BE6912F020FB002840F00E814B
:103BD000BA8DBB8C9A4254D06268BB699A42ECD1D0
:103BE0004E451ED13B8DE3B1B98C8248002D50D09B
:103BF000B5F800C08C454CD12A899A4249D86E4606
:103C00008AB06A467C49C2E907C30523C2E90510A8
:103C100042F8103F794800234FF4245100F0A4FEED
:103C2000B546BB689945B2D11022002107F1440086
:103C300011F09AFAD4F82C907E6F3E6407F1540389
:103C4000FB630821484612F081FA02466DB1B5F8CF
:103C50000880484606EB080112F078FAA16863680C
:103C60000A440244934280F08880002E3FF47FAFE4
:103C700007F13C01204612F073FA002840F0B680AC
:103C800075E707F12C01B0B212F04CFA0028A3D06E
:103C9000A6E76E468AB06A46DFF864C1C2E9071338
:103CA0000523C2E905C042F8103F544800234FF4F1
:103CB000245100F059FE4FEA1943B7F826807A6F75
:103CC0001B049844E36A1B68591E5B4203F02003FF
:103CD000B5463E8D7B60A368164401EA0600134496
:103CE000F86026EA0106FB84D6B9FB6863B17A6FF7
:103CF00007F154019B1A20460A44414612F036F956
:103D0000002873D1FB687B6707F1240012F076F975
:103D100007F12401204612F038FA002881D065E02E
:103D20007A6F7B6807F15401B34294BFC2EB030A78
:103D3000C2EB060A53460A442046414612F016F9E1
:103D4000002853D17B6F01465344182207F13C00F1
:103D50003B6011F009FA07F154037B643B68BB64D4
:103D600007F13C01204612F0FBF900283ED17B6FA1
:103D700078675344F61AD044B6E76B683144F98645
:103D8000C7E9113807F13C01204612F0E9F968BB98
:103D90002B88BB862B893B8707F13400FF2387F8EC
:103DA0003A3012F02BF907F13401204612F0EDF908
:103DB000E0B90123AB72DAE62046FFF771FE002876
:103DC0003FF4DBAE12E0A6EB0B0307F11C0120462B
:103DD000BB6012F0F7F900287FF4D4AE07F11401AC
:103DE0002046FFF70DFE00283FF4D1AE7C37BD46DC
:103DF000BDE8F08F92000208C0FE0108E8DE01086D
:103E0000F3FE01082DE9F04704468AB000F11407DB
:103E1000384618F035FFA06A8368DB689847E0628F
:103E200050B9A24AA248012112F0E6F86FF0150538
:103E300028460AB0BDE8F087A06A8368DB68984727
:103E40000368013B1F2B01D99A4AEBE7E368B3F5FE
:103E5000803F08D94FF4803200929548964A01215C
:103E600012F0E1FAE2E7A06A216807AA14F0CDFC9B
:103E700008B1924AD6E7E5682DB1089BB5FBF3F28D
:103E800003FB12550DB18E4ACCE7238A012B01D8D2
:103E90008C4AC7E7E36A029593F805904FF0FF3329
:103EA0004FF0FF3238460FF043FBE06A082112F072
:103EB0004DF9A8460646238A1FFA85FA534508D8C5
:103EC000238A434523D138460FF0A6FB6FF02C051B
:103ED000AEE7E1682B04891B13FA81F14A460823F7
:103EE0002046029112F050F878B102A9204612F053
:103EF00076F808F10108029908234A4620461FFA7D
:103F000088F812F041F80028DAD00135D3E79A4555
:103F10000BD1029908234A46891B204612F034F837
:103F200018B902A9204612F05AF802A92046FFF754
:103F300067FD054618B138460FF06EFB78E7029B27
:103F400063604FEA13484FEA0848C4F80880D4E990
:103F5000011399420FD3082303AA204612F006F852
:103F600005460028E7D103AB13F8012B914566D134
:103F70000135082DF8D163681B0C1B0402A92046EB
:103F8000029312F02CF8E36802994A46204611F099
:103F9000FBFF051ECFDB636800F0A58006EB03087E
:103FA0004FF6FF79E368CDF808801FFA88F29B1B73
:103FB0009A4260D3444A3E48032112F01DF86168DA
:103FC0002046FFF7E5FC05460028B4D163683F4A68
:103FD000E16813400B44A3EB460363601340A36006
:103FE00029462046FFF78CFD05460028A3D1E3684B
:103FF000A288A3EB46039A4200F09D8038460FF05A
:104000000BFB0123A374E268238A29480092032151
:104010002F4A12F008FA63689AB2009224482D4A97
:104020001B0C032112F0FFF9A3689AB200922048FA
:10403000294A1B0C032112F0F6F90025F8E6A088A6
:1040400003A912F06FF8626810B9921B62607EE7F4
:10405000BDF81050BDF80E10E06AC4F8088029447D
:1040600012F074F840449042A060EED1002DECD0E4
:104070006FF01C0563E0082305AA4146204611F0B5
:1040800075FF054600287FF456AF05A91FFA88F092
:1040900012F048F838B1BDF814304B4503D1BDF8E3
:1040A0001830002B52D0B0447CE700BF1DFF010840
:1040B000E8DE01083FFF01085CFF010885FF0108F9
:1040C0009DFF0108B1FF0108230002080000FFFF67
:1040D000D4FF0108EBFF0108FDFF0108E26AA368B5
:1040E00012681344A360D4E901318B4208D95B1AEA
:1040F0004A46204611F048FF051EFFF61CAFEDD1E1
:104100006168E36801EB46029A427FF470AFDFF822
:104110006080A26801EA08039A423FF468AF204633
:10412000FFF736FC054600287FF405AF636803EA15
:104130000803A3605BE72046FFF7B2FC054638465C
:104140000FF06AFA002D3FF45CAF71E6094A0A48A5
:10415000032111F051FF63681B0C1B0402A92046C8
:10416000029311F03CFF02992046FFF711FC3BE758
:104170000000FFFF0E000208E8DE01082DE9F04F05
:104180001F46837C95B004468846914653B9724ACF
:104190007248012111F030FF6FF00C05284615B070
:1041A000BDE8F08FC26A0821104611F0CFFFB9B206
:1041B0000190104611F0CAFFE368019AA3EB820355
:1041C00083420646C0F0C4801FB1B9F1000F00F071
:1041D000BF806368049305AA04A92046DDF810B0E7
:1041E00012F013F805460028D8D1BDF81430434525
:1041F00006D06268049B9A42EDD1002F3AD1CDE7F8
:1042000005A91FFA8BF011F08DFF0028F1D0BDF841
:1042100016A0BDF818305FB39F422BD1E36ACDF8EA
:1042200000901B684FEA1B4B5B424FEA0B4B03F0BD
:104230002003DA440293BB46029B5B4528BF5B46E2
:104240000CAA51462046039311F090FE002859D144
:10425000039B00981A460CA910F056FF50B9039B17
:10426000009ABBEB030B1A449A440092E4D195E701
:10427000002B93D0002E48D11FFA87FB04F1140ABB
:104280004FF0FF324FF0FF3350460FF051F96168A5
:10429000E3683348B1FBF3F203FB1213414611F01C
:1042A0006EFB238A9D4250D0D4E90132B1188B4273
:1042B0002FD39BB26BB3FF23ADF81E200021182231
:1042C0000CA88DF82230ADF81C80ADF820B010F0AD
:1042D0004BFF0CA92046CDE90E9711F041FF034694
:1042E00048B907A811F08AFE07A9204611F04DFF32
:1042F000034600B93B46009350460FF08DF9009BF2
:104300001D464BE7B6DC054648E7019B1E44B6B2A6
:10431000B2E72046FFF710FB03460028EBD13DB97A
:10432000ADF82480CDF82890ADF82CB08DF82E5043
:1043300009A92046FFF7E4FB03460028DBD19DF8DE
:104340002E300135002BACD0D4E76FF01B03D2E741
:104350006FF0150522E700BF09FF0108E8DE01083C
:104360004A0002082DE9FF471E46837CBDF83090C5
:1043700004460F4690464BB92D482E4A012111F0B4
:104380003BFE6FF00C0004B0BDE8F087C06A082166
:1043900011F0DCFEE368A3EB4003B34244D3D4F84E
:1043A00004A0CDF804A000254D455146DDF804A039
:1043B00009D9636853451FD1BDF80830BB421BD0F3
:1043C0006FF00100DFE702AA01A9204611F01DFFEE
:1043D0000028D8D1BDF80830BB4207D102A91FFA86
:1043E0008AF011F09FFE08B10135ADB26268019B01
:1043F0009A42D9D15146DFE7BDF80C30002BDFD00F
:10440000A945DDD8BDF80A00090CB3424FEA0141C5
:1044100028BF334601444246204611F0A7FD00283C
:10442000B1D1BDF80C00AEE76FF01500ABE700BFEF
:10443000E8DE010809FF01082DE9F047DFF85880A0
:10444000044607464FF0010914B93846BDE8F08725
:1044500094FAA4F5B5FA85F509FA05F32E0108EBEF
:1044600005156FEA030A24EA03042B7B002BEBD02B
:1044700058F806301B694BB9464404227368284635
:10448000196807EA0A0711F04BFFDDE7284698474D
:104490000028D9D1F0E700BF98DF010830B51049F6
:1044A000104889B0002218F069FF0F4D0F49002213
:1044B0000023CDE9062300240E23CDE90334CDE902
:1044C00001440B4B00944FF4407228460FF014FC4B
:1044D0000849284618F09DFD204609B030BD00BFB0
:1044E000F944000828170020A0120020C033002043
:1044F00015480008CC00020801480FF00FB900BFB2
:10450000301000202DE9F047804620480F4611F07A
:10451000DFFE0646002832D000252846BDE8F08799
:10452000237B83B12368DB680BB12046984763681F
:1045300083F8069023681B69CBB963680422196865
:10454000204611F0EDFE013610345445E8D3B8F1A1
:10455000000FE2D0002DDFD02846FFF76DFF0546A3
:10456000002FF7D00021642018F00BFEF2E7204660
:1045700098470028E1D009FA06F31D43E3E7044C0D
:10458000DFF810A005464FF00109DEE7301E0020DD
:1045900098DF0108A8DF0108014B53F8200070479D
:1045A00070E1010808B5034608462BB1044A1360C0
:1045B00000F074FC002008BD6FF01500FBE700BFA1
:1045C000CC08002010B5044C237813B903480FF031
:1045D000A5F80123237010BD792A00203010002097
:1045E00010B504460B4811F073FE5CB1BFF35B8F4E
:1045F000094B53E8001F013943E80012002AF8D1A3
:10460000BFF35B8F054818F0C5FE0548BDE81040B4
:104610000FF084B8281E00202C1E00202817002030
:10462000301000200020064BBFF35B8F014653E89B
:10463000000F43E80012002AF9D1BFF35B8F7047E7
:10464000281E002070B5FFF7EDFF084C084E054608
:10465000B44200D370BD63685B792BB123685B689B
:1046600013B12946204698471034F1E798DF010836
:10467000A8DF010810B5044C0449204611F0F9FAEE
:10468000034B1C6010BD00BF640F00205CE10108FB
:10469000201E00200D4A0E48002310B513700D4A4D
:1046A00013600D4A4FF47A711360FFF77BFFFFF739
:1046B000E1FF0A4B0A4918468B4200D310BD1A1A73
:1046C0005C681211013222711033F5E77A2A00205A
:1046D000EB620108281E00202C1E002098DF010834
:1046E000A8DF0108014600220148002311F0E2BAC8
:1046F000640F0020014811F07BBB00BF640F002055
:10470000024B0146186811F0CEBB00BF201E0020EE
:10471000014811F003BC00BF640F002070B5264BA8
:104720001878002846D0FFF7E5FF054600283ED15F
:10473000224B234C1B68002B12DD18F0D7FD0A22F8
:104740000023FCF743FED4E90032C01A40F2E933FB
:1047500061EB0201984271F1000101D3FFF772FF92
:10476000D4E9003213F57A7342F10002C4E9003251
:10477000BDE87040FFF7CCBF63685B7923B1236865
:1047800029461B68204698471034B442F4D3284683
:10479000FFF7B6FFBFF35B8F0A4B53E8001F0139E9
:1047A00043E80012002AF8D1BFF35B8FC0E7064C44
:1047B000064EEAE770BD00BF792A0020281E0020BF
:1047C000201700202C1E002098DF0108A8DF010818
:1047D00070B50D4D297861B90120FFF793FE0B4CA0
:1047E0000B4EB44206D3FFF799FF0028FBD10123FB
:1047F0002B7070BD63685B791BB1236820469B6892
:1048000098471034EDE700BF7A2A002098DF0108AE
:10481000A8DF010800212DE9F0470846FFF772FEE6
:10482000044648B34FF4FA784FF000090FF0E8FC63
:104830001A4B186030B11A4B1B68092B02DD19485E
:104840000EF06CFF184FDFF85CA0002544B1204645
:10485000FFF7F2FD044618B94FF0FF384FF0FF396B
:10486000FFF75CFF064628B9B5B942464B465046AD
:104870000EF088FF3546E9E74FF0FF384FF0FF397B
:10488000D4E72B689B691BB1002211462846984744
:104890001035BD42F5D3E8E7044DFAE7241E0020A9
:1048A0002C1E002030100020A8DF010898DF01082E
:1048B00013B5184811F00CFD174B1B7873B1EFF3CB
:1048C0001184102383F31288BFF36F8FFFF726FF45
:1048D00084F31188BFF36F8F02B010BD0F4B1B68BC
:1048E000002BF9D050B900220023CDE900230C4859
:1048F00042F2107200230FF0ABFFEDE70928EBD175
:10490000074818F047FD074802B0BDE810400EF018
:1049100005BF00BF2C1E00207A2A0020241E002084
:10492000281700203010002010B5064B1B680446E5
:1049300098472146A060044811F03BFABDE81040BA
:10494000FFF7B6BFCC080020640F0020044A054BD7
:104950009B1AB1EBD30F34BF52F8310000207047DF
:1049600018DE010898DF01082DE9F04F8FB004AF81
:10497000C1F34A28B8600D4691467B600C0DB8F132
:10498000000F63D0002607F114034FF0040B4FF023
:104990000A0AC7F80C80C7E907667E620193CDF862
:1049A00008B0CDF800A007F11C03F968324648466C
:1049B000FDF75AFEB0F5006F03461CD36C468AB073
:1049C000D9F8041004AB2648C3E9050140F2FF7191
:1049D000D9611A464FF400711984224B42F8103FF6
:1049E000214833464FF41251FFF7BEFFA5462C373E
:1049F000BD46BDE8F08FC0F30A0804F11700184463
:104A000020F0070080083B60FFF76CFE68F3532539
:104A1000044690B13B68154AC7E9083600F1100119
:104A200007F11403F961CDE900A3CDF808B0F968E6
:104A300007F11C034846FDF717FE68F353257B6812
:104A4000B9682A46204611F08BFCD0E704F1170024
:104A500020F007008008FFF745FE0446EDE700BFA1
:104A6000E10002080400000110DF010833630108BF
:104A70002DE9F04F87B0DDE91279DDE9105A0446DF
:104A8000039193469846BFB1CDF800903B465246FD
:104A900010210020CDF81490FDF714FCB0F5006F44
:104AA00006460AD3184A194840F2FF73022107B09C
:104AB000BDE8F04F11F0ADBC3E4604F007040BF02A
:104AC000070BE40044EA8B1444EA462444EA055404
:104AD00005F11700304420F007008008FFF702FEC0
:104AE000054640B13FB1CDF800903B4652463146B5
:104AF0001030FDF7E7FB039943462246284607B0EE
:104B0000BDE8F04F11F02CBC2001020810DF0108B5
:104B1000406820B1034BC01A40F3CF0070474FF0FC
:104B2000FF30704718DE01080EB403B503AB014631
:104B300053F8042B0448019311F09CFC02B05DF87B
:104B400004EB03B0704700BF83640108CA0605D4B4
:104B50008B064CBF02490349FFF7E6BF704700BF11
:104B600059010208580102082DE9F04F89B09A4610
:104B7000149B06939DF84CB0159B0593169B179EAE
:104B8000049304460D469046BBF1000F00F09D8053
:104B900006F48073079311F0C1FB06F00209024688
:104BA00000283ED092492046FFF7BEFF0746B9F1E4
:104BB000000F08D016F0440F35D18E492A46204602
:104BC000FFF7B2FF074406F0010353B18A4B8B494C
:104BD00053F82B208A4B2046002A08BF1A46FFF7BD
:104BE000A3FF06F48073002B49D006F00803002BC6
:104BF00063D1B8F1000F66D0824942462046FFF7E4
:104C000093FF0546069B3D44002B6DD1049B002B72
:104C100073D1F30700F1E58031462046FFF796FF98
:104C2000D9E00746C3E7784B18680028CAD0774B0D
:104C30004FF47A791B68B5FBF3F54FF46163B5FB6C
:104C4000F0F100FB115509FB05F54FF03C0CB1FBF1
:104C5000F3F203FB1211B5FBF0FEB1FBFCF300FB1A
:104C60001E550CFB131109FB05F50091B5FBF0F582
:104C70006749CDE901E52046FFF756FFA2E706F0B8
:104C80000803EBB1634B644953F82B202046FFF730
:104C90004BFF0546B8F1000F05D05A494246204661
:104CA000FFF742FF0544BAF1000FABD05B49524613
:104CB0002046FFF739FF0544A4E74FF0000AE1E77B
:104CC00006F00805E6E745469CE7BAF1010F069BAA
:104CD00006D1002B65D1049B002B7CD000250CE075
:104CE000002BF8D04E485DE04E48069B4E492246C8
:104CF00010F0D9FD049B002B69D0DFF83081DFF87C
:104D00003091049F3146102F204628BF1027FFF70F
:104D10001DFF4FF0000A554546DC059B49461A78B1
:104D20002046FFF701FF4FF0010A1AF0070F03D1E9
:104D300041462046FFF7F8FE57453CD9059B4946BA
:104D400013F80A202046FFF7EFFE0AF1010ABAF134
:104D5000100FEAD1374920464FF0000AFFF7E4FE72
:104D60005246059B9A5C344B995C11F0970F08BF33
:104D70002E2232492046FFF7D7FE0AF1010ABAF186
:104D8000100F1DD01AF0070F03D141462046FFF740
:104D9000CBFE57455246E4D841462046FFF7C4FEB5
:104DA000EBE720485D46A0E741462046FFF7BCFE02
:104DB0000AF1010AAFE722492046FFF7B5FEC4E732
:104DC000059B3B440593049BDB1B049399D1BBF1EA
:104DD000000F7FF41EAF204609B0BDE8F04F11F080
:104DE0003CBB074A05492046FFF79EFE14E700BF7B
:104DF000600102086401020880E10108000B02085A
:104E00005B01020889010208381E0020341E0020C0
:104E10006D01020894E101088D0102089301020866
:104E2000B96401088364010875640108A0010208DF
:104E300098010208A20102085DF60108A401020817
:104E40009E01020873B542F20F738B4228BF0B46D6
:104E500005680F4A04460521684610F09DFD636809
:104E60000C495B6806460B22284611F0E8FA636895
:104E70003246694628465B6811F0E1FA63680649E4
:104E80005B681B22284611F0DAFA02B070BD00BF41
:104E9000F51D0208C3010208A7010208074A002104
:104EA0000123904206D8064A01B901231360054B3D
:104EB0001860704740085B000121F2E740420F0094
:104EC000341E0020381E0020F8B5074F0D4604465A
:104ED0004618B44201D12846F8BD14F8011BBB683E
:104EE00001485B689847F4E7CCD60108014B0360A2
:104EF00000207047DCE1010810B5DFF824C086B05F
:104F00004FF42814CDE904C40824029404AC01949D
:104F1000BDF82040009412F08BFF06B010BD00BF1A
:104F20001800280008B50348034A0021121A11F09E
:104F300087FB08BDA0110020202B00200748084A4D
:104F4000084908B5121A11F07DFB0748074A0849BD
:104F5000BDE80840121A11F075BB00BF0000002028
:104F60009C110020283002080000002000000020D2
:104F7000283002082DE9F047064600AF0C4600290C
:104F800036D0E9468AB0D1E90012A3686D462148BF
:104F9000A8464FF0050AC5E90501C5E9072348F809
:104FA00010AF1D48424600234FF42151FFF7DCFCAF
:104FB000CD46D4E903126369AD461848C5F810A080
:104FC000C5E90501C5E907231348002342464FF40C
:104FD0002151FFF7C9FCCD46E369114A0E48012172
:104FE00011F017FAA3690F4A0B48012111F011FAC9
:104FF000012E07D1EFF305830B4A0748103B3146DA
:1050000011F007FA214630460DF0EAFFBD46BDE833
:10501000F08700BF0902020840DF010838020208D9
:105020006702020876020208A402020830BFFFF7F6
:10503000FDBF00BF70B506460D46284C28492948DB
:1050400011F00DFBA36AD9043CD52648264911F07E
:1050500006FB1720A36A1A0504D52248234911F03C
:10506000FEFA18201D4CA36A9B0512D51D48204945
:1050700011F0F5FAA36BA26A100409D51D4A19486C
:10508000012111F0C6F91EB1A36A23F40043A36203
:105090001920124CA36A590504D51248164911F07B
:1050A000DEFA1A20A36ADA050ED50E48134911F06C
:1050B000D6FA1B20094A936A43F47F439362002384
:1050C0002B7070BD1620C5E7A36A9B04F2D5054876
:1050D0000B4911F0C4FA1C20ECE700BF00ED00E022
:1050E000B702020840DF0108CD020208DE02020812
:1050F000F10202080A0302081F0302083A03020829
:105100005203020810B5204C2049214811F0A7FA9B
:10511000A36A990136D51E481E4911F0A0FA1E2037
:10512000A36ADA0104D51A481B4911F098FA1F2026
:10513000154CA36A1B0304D51548184911F08FFAC2
:105140002120A36A590304D51148154911F087FAA3
:1051500022200D4CA36A9A0304D50D48114911F081
:105160007EFA2320A36ADB0304D509480E4911F017
:1051700076FA2420044A936A6FEA03436FEA1343E2
:10518000936210BD1D20CBE700ED00E08103020813
:1051900040DF010899030208AC030208C6030208B5
:1051A000E403020809040208230402082DE9F84375
:1051B000804689461746354D3549364811F04FFA35
:1051C000AB6ADE0627D53449324811F048FA11247B
:1051D000AB6A1D0704D531492E4811F040FA12245C
:1051E0002A4DAB6A980718D52D492A4811F037FA8D
:1051F0006E6BAB6A190646D52A4A2648334601210A
:1052000011F007F9B9F1000F03D0AB6A23F0800366
:10521000AB62132403E01024DAE76FF015061B4D90
:10522000AB6ADA0704D520491A4811F018FA142499
:10523000AB6A9B0604D51D49164811F010FA1524D7
:10524000124B9A6AD50602D49A6A90070AD55B680F
:10525000190507D54146304600F0E4F910B180F356
:1052600009880224094B9A6A920642BF5A6A22F4BC
:1052700000525A629A6A42F0FF029A6200233B701F
:105280002046BDE8F8836FF01506C2E700ED00E0A8
:105290004E04020840DF010864040208DE0202082E
:1052A00097040208AF040208C5040208520302086A
:1052B0002DE9F041664B8AB0D3F8048000AF044674
:1052C000C8F30805002686F31188BFF36F8F02F03C
:1052D0007F43B3F17F4F07D102F00C03082B12D1AB
:1052E0005C495D4811F0BBF9002634460023FB7190
:1052F000EB1E092B00F28A80DFE803F00A80837C32
:1053000088888888888610074CBF0C460126EDE700
:10531000524951484E4D11F0A2F90023FB71EB6A3E
:105320009A0705D54E494C4811F099F9002332E00F
:10533000EB6A002B01DA4B49F5E7EB6A5B00F5D528
:105340004949454811F08BF96B69A26943F48073B0
:105350006B61BFF34F8FBFF36F8F6B6932F8022C15
:1053600023F480736B61BFF34F8FBFF36F8F4DF6E4
:1053700002739A4208D0AB6ADBB273B3FA1D012103
:105380002046FFF713FF37E02368384A32480121EF
:1053900011F03FF82368FA79DAB907F1080504F14A
:1053A000200C206861682A4603C20834644515460B
:1053B000F7D17A6A002E45D0C2F3080121B96FEA0D
:1053C00052226FEA42227A6207F108011846FFF77B
:1053D000D1FD2837BD46BDE8F081AB6A13F47F4F9D
:1053E00004D0F91D0120FFF725FE05E0AB6AB3F5F7
:1053F000803F9BD3FFF786FE0346CCE7FA1D0021D2
:10540000BEE7F91D0020EEE719498CE7194A1A4B4F
:1054100018F4F87FE8468AB018BF13466A46174961
:10542000C2E905134FF400731384103D144BD5618A
:1054300042F8103F084800234FF41151FFF794FA47
:10544000C54673E722F4FF7222F00102BBE700BFFA
:1054500000ED00E01205020840DF01083D050208EA
:10546000540502087505020883050208A205020812
:10547000BE050208F9040208E4040208E205020875
:1054800004000001044B5A6942F010025A615A6943
:1054900022F008025A61704700ED00E0EFF3088047
:1054A000EFF3098101B57246FFF702FF01BD00BFAE
:1054B0000A4880F30888102080F3118808484FF4C8
:1054C0000461401880F30988EFF314800221084337
:1054D00080F31488BFF36F8F00F06CF84056002003
:1054E000804800201EF0040F0CBFEFF30880EFF39C
:1054F0000980816911F8021C0229FFD001B57246AA
:1055000011F0A2F801BD00BF40B2002807DB044A39
:105510004109012300F01F00834042F82130704709
:1055200000E100E040B200280CDB4309064900F02E
:105530001F0020330122824041F82320BFF34F8F08
:10554000BFF36F8F704700BF00E100E0054B4209D9
:1055500000F01F0053F82220012303FA00F010404E
:10556000704700BF00E100E040B20028A8BF00F192
:10557000604001F10101B8BF064B4FEA0111ACBF19
:1055800000F5614000F00F00C9B2B4BF195480F8B3
:105590000013704714ED00E0044B054A23F07F032D
:1055A0009360BFF34F8FBFF36F8F70470000000809
:1055B00000ED00E008B5FFF7EFFF0B4AD2F88830A6
:1055C00023F47003C2F88830EFF3148323F004034C
:1055D00083F31488BFF36F8FFFF7A4FCFFF7AEFCD3
:1055E00000F0A6F80DF020FE00ED00E042F8203CAF
:1055F000009B42F81C3C0A49019B42F8183C029B64
:1056000042F8143C21F001014FF0807342F8043C51
:1056100042F8081C0023203A02654367704700BF28
:10562000B3590108094A0346906870B113F1160F87
:10563000406E05D0A0F14002934205D3834203D2CD
:10564000814228BF0020704700207047D8290020E1
:1056500008B50B4B0E461546986000F093F82C46A3
:1056600086F309880020044B984720460021002239
:105670000023024C2047000075660108B359010859
:10568000D8290020014B10221A61704700ED00E07C
:10569000054B5A699B689A421FBF044A536843F0FE
:1056A00080535360704700BFD829002000ED00E010
:1056B000084B9B6883420BD1EFF3058343B1064B44
:1056C0005A6842F080525A605A6A22F400425A6282
:1056D0000EF09CBDD829002000ED00E012498A6838
:1056E0004FF030001044EFF3098C80E8F01F1020D9
:1056F00080F31288BFF36F8F0C4F4FF000664A693A
:105700008A603E60506F0023536780F3118804B5B0
:10571000104600F037F8BDE8044002F1300090E890
:10572000F01F8CF309887047D829002004ED00E0B1
:10573000044800231021C2180133522B82F80013B1
:10574000F9D1704700E100E008B5EFF30583064AA0
:10575000103B02EBC30152F8330049688847BDE8AB
:105760000840FFF795BF00BFC4D80108024B034AA9
:105770000348012100F08AB80080012000000020C9
:1057800068E20108426E054B403A1A60044A402123
:10579000C3E901121846012100F082B8601E002002
:1057A00000000B1508B503461048D0F89020C2F34E
:1057B0000722013A934207D90D480E4A012110F001
:1057C00028FE6FF0150008BDC0F898300A6822F076
:1057D0001F021A4342F01002C0F89C208A6842F06F
:1057E0000102C0F8A0201846EDE700BF00ED00E080
:1057F00028DF0108F9050208F0B50E4685B01F46FE
:1058000004460025B5420DDA606810B397B1431E17
:1058100018420AD0104A11482B46012110F0F9FD18
:105820006FF01502104605B0F0BD1F28F2D92168AF
:105830000B42EFD12368019310F030FFA36801A958
:105840000343D0B20393FFF7ADFF10F1160FE7D07B
:10585000421C01350C34D5E71F06020828DF010879
:10586000044B0522C3F89420BFF34F8FBFF36F8F13
:10587000704700BF00ED00E0BFF35F8F024B0022D6
:10588000C3F89420704700BF00ED00E010B5034C52
:1058900001232278FFF7B0FF207010BD7C2A002082
:1058A00008B50B4A00231278FFF7A6FF10F1160F78
:1058B00007D0084A0021D2F89030C3F3072398425A
:1058C00000DB08BDC2F89800C2F8A0100130F2E772
:1058D0007C2A002000ED00E02DE9F0435E485F499E
:1058E000D0F890300D68C3F307239D4285B000F2D5
:1058F000B080FFF7C1FF49680022954201F10C0119
:105900001BD1574C574F25706846FFF7EFFADFF869
:105910005881DFF8589106460025AE4220D1237801
:105920004D490020D1F89020C2F307229342C0F2E3
:105930008A80FFF795FF00204FE0C0F8982051F8CB
:105940000C3C23F01F03134343F01003C0F89C30BA
:1059500051F8043C43F00103C0F8A0300132CCE719
:10596000009800EB05114FEA051CCB683B40B3F5EE
:10597000000F49D00AD8B3F5001F31D0B3F5800F1E
:1059800037D0B3F5801F13D00135C6E7B3F1007FE0
:1059900043D0B3F1805F49D0B3F1807FF4D150F8A8
:1059A0000C3088684A6810F079FE40F0887009E091
:1059B00050F80C3088684A6810F070FE40F088504B
:1059C00040F43020039001A92078CDE90123FFF7AE
:1059D000E9FE002833DA6FF0150005B0BDE8F0836A
:1059E00050F80C3088684A6810F058FE40EA090008
:1059F000E8E750F80C3088684A6810F04FFE40F035
:105A0000007040F40030DDE750F80C3088684A68D8
:105A100010F044FE40F08270D4E750F80C308868F3
:105A20004A6810F03BFE40F48020CBE750F80C3081
:105A300088684A6810F032FE40EA0800C2E723781E
:105A400001332370A0E7C1F89830C1F8A0000133FA
:105A500068E74FF0FF30C0E700ED00E074E20108B6
:105A60007C2A00200000F0FF000002110000081155
:105A7000014B1860704700BFF008002010B5074CBC
:105A80002368C2180648C0F1005101F5C0318A42AE
:105A90003ABF2260C0184FF0FF3010BD6C1E0020CE
:105AA000FA66002070B54169857A0C4E044659B1FA
:105AB000437ADB0706D4242303FB0563DB691B68F9
:105AC0009B6898470023636105EBC505214606EBFB
:105AD0008500BDE8704017F06DB900BFA010002030
:105AE000024B242202FB0030704700BFA0100020B0
:105AF000827A064B242101FB02331A6A1B7D1B3379
:105B0000801A23F00303B0FBF3F07047A0100020CD
